:1000000071C0000079C0000077C0000075C000001A
:1000100073C0000071C000006FC000006DC0000020
:100020006BC0000069C0000067C0000065C0000030
:1000300063C0000061C000005FC000005DC0000040
:100040005BC0000059C0000057C0000055C0000050
:1000500053C0000051C000004FC000004DC0000060
:100060004BC0000049C0000047C0000045C0000070
:1000700043C0000041C000003FC000003DC0000080
:100080003BC0000039C0000037C0000035C0000090
:1000900033C0000031C000002FC000002DC00000A0
:1000A0002BC0000029C0000027C0000025C00000B0
:1000B00023C0000021C000001FC000001DC00000C0
:1000C0001BC0000019C0000017C0000015C00000D0
:1000D00013C0000011C000000FC000000DC00000E0
:1000E0000BC0000011241FBECFEFD1E2DEBFCDBF99
:1000F00000E00CBF2DD042C083CF0895CF93DF9393
:100100001F92CDB7DEB78FEF8093640080936500B8
:1001100080916100833069F08FB78983F894898179
:100120005F9350E85093610053E0509361005F91FA
:100130008FBF0F90DF91CF91089504C06150710976
:10014000810991096115710581059105B9F7089536
:10015000D5DFD3DF15B88FEF84B9C0E00FEF11E022
:10016000D0E06BE07BE882E090E0E7DFCC2319F0A1
:1001700015B8CD2FF6CF05B9C12FF3CFF894FFCF27
:00000001FF
